{
  "_format": "hh-sol-artifact-1",
  "contractName": "Arts",
  "sourceName": "contracts/Arts.sol",
  "abi": [
    {
      "inputs": [],
      "stateMutability": "nonpayable",
      "type": "constructor"
    },
    {
      "anonymous": false,
      "inputs": [
        {
          "indexed": true,
          "internalType": "address",
          "name": "owner",
          "type": "address"
        },
        {
          "indexed": true,
          "internalType": "address",
          "name": "approved",
          "type": "address"
        },
        {
          "indexed": true,
          "internalType": "uint256",
          "name": "tokenId",
          "type": "uint256"
        }
      ],
      "name": "Approval",
      "type": "event"
    },
    {
      "anonymous": false,
      "inputs": [
        {
          "indexed": true,
          "internalType": "address",
          "name": "owner",
          "type": "address"
        },
        {
          "indexed": true,
          "internalType": "address",
          "name": "operator",
          "type": "address"
        },
        {
          "indexed": false,
          "internalType": "bool",
          "name": "approved",
          "type": "bool"
        }
      ],
      "name": "ApprovalForAll",
      "type": "event"
    },
    {
      "anonymous": false,
      "inputs": [
        {
          "indexed": true,
          "internalType": "address",
          "name": "from",
          "type": "address"
        },
        {
          "indexed": true,
          "internalType": "address",
          "name": "to",
          "type": "address"
        },
        {
          "indexed": true,
          "internalType": "uint256",
          "name": "tokenId",
          "type": "uint256"
        }
      ],
      "name": "Transfer",
      "type": "event"
    },
    {
      "inputs": [
        {
          "internalType": "address",
          "name": "to",
          "type": "address"
        },
        {
          "internalType": "uint256",
          "name": "tokenId",
          "type": "uint256"
        }
      ],
      "name": "approve",
      "outputs": [],
      "stateMutability": "nonpayable",
      "type": "function"
    },
    {
      "inputs": [
        {
          "internalType": "address",
          "name": "owner",
          "type": "address"
        }
      ],
      "name": "balanceOf",
      "outputs": [
        {
          "internalType": "uint256",
          "name": "",
          "type": "uint256"
        }
      ],
      "stateMutability": "view",
      "type": "function"
    },
    {
      "inputs": [],
      "name": "baseURI",
      "outputs": [
        {
          "internalType": "string",
          "name": "",
          "type": "string"
        }
      ],
      "stateMutability": "pure",
      "type": "function"
    },
    {
      "inputs": [
        {
          "internalType": "address",
          "name": "newOwner",
          "type": "address"
        }
      ],
      "name": "changeOwner",
      "outputs": [],
      "stateMutability": "nonpayable",
      "type": "function"
    },
    {
      "inputs": [
        {
          "internalType": "string",
          "name": "_tokenURI",
          "type": "string"
        }
      ],
      "name": "createToken",
      "outputs": [],
      "stateMutability": "payable",
      "type": "function"
    },
    {
      "inputs": [
        {
          "internalType": "uint256",
          "name": "tokenId",
          "type": "uint256"
        }
      ],
      "name": "getApproved",
      "outputs": [
        {
          "internalType": "address",
          "name": "",
          "type": "address"
        }
      ],
      "stateMutability": "view",
      "type": "function"
    },
    {
      "inputs": [
        {
          "internalType": "uint256",
          "name": "_tokenId",
          "type": "uint256"
        }
      ],
      "name": "getArtUrl",
      "outputs": [
        {
          "internalType": "string",
          "name": "",
          "type": "string"
        }
      ],
      "stateMutability": "view",
      "type": "function"
    },
    {
      "inputs": [],
      "name": "getMintFee",
      "outputs": [
        {
          "internalType": "uint256",
          "name": "",
          "type": "uint256"
        }
      ],
      "stateMutability": "view",
      "type": "function"
    },
    {
      "inputs": [],
      "name": "getTotalFee",
      "outputs": [
        {
          "internalType": "uint256",
          "name": "",
          "type": "uint256"
        }
      ],
      "stateMutability": "view",
      "type": "function"
    },
    {
      "inputs": [
        {
          "internalType": "uint256",
          "name": "_tokenId",
          "type": "uint256"
        }
      ],
      "name": "getURI",
      "outputs": [
        {
          "internalType": "string",
          "name": "",
          "type": "string"
        }
      ],
      "stateMutability": "view",
      "type": "function"
    },
    {
      "inputs": [
        {
          "internalType": "address",
          "name": "owner",
          "type": "address"
        },
        {
          "internalType": "address",
          "name": "operator",
          "type": "address"
        }
      ],
      "name": "isApprovedForAll",
      "outputs": [
        {
          "internalType": "bool",
          "name": "",
          "type": "bool"
        }
      ],
      "stateMutability": "view",
      "type": "function"
    },
    {
      "inputs": [],
      "name": "name",
      "outputs": [
        {
          "internalType": "string",
          "name": "",
          "type": "string"
        }
      ],
      "stateMutability": "view",
      "type": "function"
    },
    {
      "inputs": [],
      "name": "owner",
      "outputs": [
        {
          "internalType": "address",
          "name": "",
          "type": "address"
        }
      ],
      "stateMutability": "view",
      "type": "function"
    },
    {
      "inputs": [
        {
          "internalType": "uint256",
          "name": "tokenId",
          "type": "uint256"
        }
      ],
      "name": "ownerOf",
      "outputs": [
        {
          "internalType": "address",
          "name": "",
          "type": "address"
        }
      ],
      "stateMutability": "view",
      "type": "function"
    },
    {
      "inputs": [
        {
          "internalType": "address",
          "name": "from",
          "type": "address"
        },
        {
          "internalType": "address",
          "name": "to",
          "type": "address"
        },
        {
          "internalType": "uint256",
          "name": "tokenId",
          "type": "uint256"
        }
      ],
      "name": "safeTransferFrom",
      "outputs": [],
      "stateMutability": "nonpayable",
      "type": "function"
    },
    {
      "inputs": [
        {
          "internalType": "address",
          "name": "from",
          "type": "address"
        },
        {
          "internalType": "address",
          "name": "to",
          "type": "address"
        },
        {
          "internalType": "uint256",
          "name": "tokenId",
          "type": "uint256"
        },
        {
          "internalType": "bytes",
          "name": "_data",
          "type": "bytes"
        }
      ],
      "name": "safeTransferFrom",
      "outputs": [],
      "stateMutability": "nonpayable",
      "type": "function"
    },
    {
      "inputs": [
        {
          "internalType": "address",
          "name": "operator",
          "type": "address"
        },
        {
          "internalType": "bool",
          "name": "approved",
          "type": "bool"
        }
      ],
      "name": "setApprovalForAll",
      "outputs": [],
      "stateMutability": "nonpayable",
      "type": "function"
    },
    {
      "inputs": [
        {
          "internalType": "uint256",
          "name": "fee",
          "type": "uint256"
        }
      ],
      "name": "setFee",
      "outputs": [],
      "stateMutability": "nonpayable",
      "type": "function"
    },
    {
      "inputs": [
        {
          "internalType": "bytes4",
          "name": "interfaceId",
          "type": "bytes4"
        }
      ],
      "name": "supportsInterface",
      "outputs": [
        {
          "internalType": "bool",
          "name": "",
          "type": "bool"
        }
      ],
      "stateMutability": "view",
      "type": "function"
    },
    {
      "inputs": [],
      "name": "symbol",
      "outputs": [
        {
          "internalType": "string",
          "name": "",
          "type": "string"
        }
      ],
      "stateMutability": "view",
      "type": "function"
    },
    {
      "inputs": [
        {
          "internalType": "uint256",
          "name": "tokenId",
          "type": "uint256"
        }
      ],
      "name": "tokenURI",
      "outputs": [
        {
          "internalType": "string",
          "name": "",
          "type": "string"
        }
      ],
      "stateMutability": "view",
      "type": "function"
    },
    {
      "inputs": [
        {
          "internalType": "address",
          "name": "from",
          "type": "address"
        },
        {
          "internalType": "address",
          "name": "to",
          "type": "address"
        },
        {
          "internalType": "uint256",
          "name": "tokenId",
          "type": "uint256"
        }
      ],
      "name": "transferFrom",
      "outputs": [],
      "stateMutability": "nonpayable",
      "type": "function"
    },
    {
      "inputs": [
        {
          "internalType": "uint256",
          "name": "amount",
          "type": "uint256"
        }
      ],
      "name": "withdrawFee",
      "outputs": [],
      "stateMutability": "nonpayable",
      "type": "function"
    }
  ],
  "bytecode": "0x60806040523480156200001157600080fd5b506040518060400160405280600481526020017f41727473000000000000000000000000000000000000000000000000000000008152506040518060400160405280600381526020017f41525400000000000000000000000000000000000000000000000000000000008152508160009080519060200190620000969291906200010e565b508060019080519060200190620000af9291906200010e565b50505033600660006101000a81548173ffffffffffffffffffffffffffffffffffffffff021916908373ffffffffffffffffffffffffffffffffffffffff1602179055506012600881905550655af3107a400060078190555062000223565b8280546200011c90620001be565b90600052602060002090601f0160209004810192826200014057600085556200018c565b82601f106200015b57805160ff19168380011785556200018c565b828001600101855582156200018c579182015b828111156200018b5782518255916020019190600101906200016e565b5b5090506200019b91906200019f565b5090565b5b80821115620001ba576000816000905550600101620001a0565b5090565b60006002820490506001821680620001d757607f821691505b60208210811415620001ee57620001ed620001f4565b5b50919050565b7f4e487b7100000000000000000000000000000000000000000000000000000000600052602260045260246000fd5b6131db80620002336000396000f3fe6080604052600436106101405760003560e01c806370a08231116100b6578063a6f9dae11161006f578063a6f9dae114610461578063b88d4fde1461048a578063be357616146104b3578063c87b56dd146104dc578063c98c38c214610519578063e985e9c51461055657610140565b806370a082311461034f5780637a5caab31461038c5780637ae316d0146103b75780638da5cb5b146103e257806395d89b411461040d578063a22cb4651461043857610140565b806323b872dd1161010857806323b872dd1461025057806342842e0e1461027957806345576f94146102a25780636352211e146102be57806369fe0e2d146102fb5780636c0360eb1461032457610140565b806301ffc9a71461014557806306fdde0314610182578063081812fc146101ad578063095ea7b3146101ea5780631aa347dc14610213575b600080fd5b34801561015157600080fd5b5061016c600480360381019061016791906121fa565b610593565b6040516101799190612ac8565b60405180910390f35b34801561018e57600080fd5b50610197610675565b6040516101a49190612ae3565b60405180910390f35b3480156101b957600080fd5b506101d460048036038101906101cf919061228d565b610707565b6040516101e19190612a61565b60405180910390f35b3480156101f657600080fd5b50610211600480360381019061020c91906121be565b61078c565b005b34801561021f57600080fd5b5061023a6004803603810190610235919061228d565b6108a4565b6040516102479190612ae3565b60405180910390f35b34801561025c57600080fd5b50610277600480360381019061027291906120b8565b61098d565b005b34801561028557600080fd5b506102a0600480360381019061029b91906120b8565b6109ed565b005b6102bc60048036038101906102b7919061224c565b610a0d565b005b3480156102ca57600080fd5b506102e560048036038101906102e0919061228d565b610aa3565b6040516102f29190612a61565b60405180910390f35b34801561030757600080fd5b50610322600480360381019061031d919061228d565b610b55565b005b34801561033057600080fd5b50610339610bef565b6040516103469190612ae3565b60405180910390f35b34801561035b57600080fd5b5061037660048036038101906103719190612053565b610c2c565b6040516103839190612d65565b60405180910390f35b34801561039857600080fd5b506103a1610ce4565b6040516103ae9190612d65565b60405180910390f35b3480156103c357600080fd5b506103cc610cee565b6040516103d99190612d65565b60405180910390f35b3480156103ee57600080fd5b506103f7610d86565b6040516104049190612a61565b60405180910390f35b34801561041957600080fd5b50610422610dac565b60405161042f9190612ae3565b60405180910390f35b34801561044457600080fd5b5061045f600480360381019061045a9190612182565b610e3e565b005b34801561046d57600080fd5b5061048860048036038101906104839190612053565b610fbf565b005b34801561049657600080fd5b506104b160048036038101906104ac9190612107565b611093565b005b3480156104bf57600080fd5b506104da60048036038101906104d5919061228d565b6110f5565b005b3480156104e857600080fd5b5061050360048036038101906104fe919061228d565b611288565b6040516105109190612ae3565b60405180910390f35b34801561052557600080fd5b50610540600480360381019061053b919061228d565b61132f565b60405161054d9190612ae3565b60405180910390f35b34801561056257600080fd5b5061057d6004803603810190610578919061207c565b611375565b60405161058a9190612ac8565b60405180910390f35b60007f80ac58cd000000000000000000000000000000000000000000000000000000007bffffffffffffffffffffffffffffffffffffffffffffffffffffffff1916827bffffffffffffffffffffffffffffffffffffffffffffffffffffffff1916148061065e57507f5b5e139f000000000000000000000000000000000000000000000000000000007bffffffffffffffffffffffffffffffffffffffffffffffffffffffff1916827bffffffffffffffffffffffffffffffffffffffffffffffffffffffff1916145b8061066e575061066d82611409565b5b9050919050565b60606000805461068490612fd0565b80601f01602080910402602001604051908101604052809291908181526020018280546106b090612fd0565b80156106fd5780601f106106d2576101008083540402835291602001916106fd565b820191906000526020600020905b8154815290600101906020018083116106e057829003601f168201915b5050505050905090565b600061071282611473565b610751576040517f08c379a000000000000000000000000000000000000000000000000000000000815260040161074890612ca5565b60405180910390fd5b6004600083815260200190815260200160002060009054906101000a900473ffffffffffffffffffffffffffffffffffffffff169050919050565b600061079782610aa3565b90508073ffffffffffffffffffffffffffffffffffffffff168373ffffffffffffffffffffffffffffffffffffffff161415610808576040517f08c379a00000000000000000000000000000000000000000000000000000000081526004016107ff90612d05565b60405180910390fd5b8073ffffffffffffffffffffffffffffffffffffffff166108276114df565b73ffffffffffffffffffffffffffffffffffffffff1614806108565750610855816108506114df565b611375565b5b610895576040517f08c379a000000000000000000000000000000000000000000000000000000000815260040161088c90612c05565b60405180910390fd5b61089f83836114e7565b505050565b606060095482106108ea576040517f08c379a00000000000000000000000000000000000000000000000000000000081526004016108e190612d25565b60405180910390fd5b600a6000838152602001908152602001600020805461090890612fd0565b80601f016020809104026020016040519081016040528092919081815260200182805461093490612fd0565b80156109815780601f1061095657610100808354040283529160200191610981565b820191906000526020600020905b81548152906001019060200180831161096457829003601f168201915b50505050509050919050565b61099e6109986114df565b826115a0565b6109dd576040517f08c379a00000000000000000000000000000000000000000000000000000000081526004016109d490612d45565b60405180910390fd5b6109e883838361167e565b505050565b610a0883838360405180602001604052806000815250611093565b505050565b600754341015610a52576040517f08c379a0000000000000000000000000000000000000000000000000000000008152600401610a4990612b45565b60405180910390fd5b610a5e336009546118da565b80600a600060095481526020019081526020016000209080519060200190610a87929190611e77565b5060096000815480929190610a9b90613002565b919050555050565b6000806002600084815260200190815260200160002060009054906101000a900473ffffffffffffffffffffffffffffffffffffffff169050600073ffffffffffffffffffffffffffffffffffffffff168173ffffffffffffffffffffffffffffffffffffffff161415610b4c576040517f08c379a0000000000000000000000000000000000000000000000000000000008152600401610b4390612c45565b60405180910390fd5b80915050919050565b600660009054906101000a900473ffffffffffffffffffffffffffffffffffffffff1673ffffffffffffffffffffffffffffffffffffffff163373ffffffffffffffffffffffffffffffffffffffff1614610be5576040517f08c379a0000000000000000000000000000000000000000000000000000000008152600401610bdc90612b05565b60405180910390fd5b8060078190555050565b60606040518060400160405280601581526020017f68747470733a2f2f697066732e696f2f697066732f0000000000000000000000815250905090565b60008073ffffffffffffffffffffffffffffffffffffffff168273ffffffffffffffffffffffffffffffffffffffff161415610c9d576040517f08c379a0000000000000000000000000000000000000000000000000000000008152600401610c9490612c25565b60405180910390fd5b600360008373ffffffffffffffffffffffffffffffffffffffff1673ffffffffffffffffffffffffffffffffffffffff168152602001908152602001600020549050919050565b6000600754905090565b6000600660009054906101000a900473ffffffffffffffffffffffffffffffffffffffff1673ffffffffffffffffffffffffffffffffffffffff163373ffffffffffffffffffffffffffffffffffffffff1614610d80576040517f08c379a0000000000000000000000000000000000000000000000000000000008152600401610d7790612b05565b60405180910390fd5b47905090565b600660009054906101000a900473ffffffffffffffffffffffffffffffffffffffff1681565b606060018054610dbb90612fd0565b80601f0160208091040260200160405190810160405280929190818152602001828054610de790612fd0565b8015610e345780601f10610e0957610100808354040283529160200191610e34565b820191906000526020600020905b815481529060010190602001808311610e1757829003601f168201915b5050505050905090565b610e466114df565b73ffffffffffffffffffffffffffffffffffffffff168273ffffffffffffffffffffffffffffffffffffffff161415610eb4576040517f08c379a0000000000000000000000000000000000000000000000000000000008152600401610eab90612bc5565b60405180910390fd5b8060056000610ec16114df565b73ffffffffffffffffffffffffffffffffffffffff1673ffffffffffffffffffffffffffffffffffffffff16815260200190815260200160002060008473ffffffffffffffffffffffffffffffffffffffff1673ffffffffffffffffffffffffffffffffffffffff16815260200190815260200160002060006101000a81548160ff0219169083151502179055508173ffffffffffffffffffffffffffffffffffffffff16610f6e6114df565b73ffffffffffffffffffffffffffffffffffffffff167f17307eab39ab6107e8899845ad3d59bd9653f200f220920489ca2b5937696c3183604051610fb39190612ac8565b60405180910390a35050565b600660009054906101000a900473ffffffffffffffffffffffffffffffffffffffff1673ffffffffffffffffffffffffffffffffffffffff163373ffffffffffffffffffffffffffffffffffffffff161461104f576040517f08c379a000000000000000000000000000000000000000000000000000000000815260040161104690612b05565b60405180910390fd5b80600660006101000a81548173ffffffffffffffffffffffffffffffffffffffff021916908373ffffffffffffffffffffffffffffffffffffffff16021790555050565b6110a461109e6114df565b836115a0565b6110e3576040517f08c379a00000000000000000000000000000000000000000000000000000000081526004016110da90612d45565b60405180910390fd5b6110ef84848484611aa8565b50505050565b600660009054906101000a900473ffffffffffffffffffffffffffffffffffffffff1673ffffffffffffffffffffffffffffffffffffffff163373ffffffffffffffffffffffffffffffffffffffff1614611185576040517f08c379a000000000000000000000000000000000000000000000000000000000815260040161117c90612b05565b60405180910390fd5b600061118f610cee565b9050808211156111d4576040517f08c379a00000000000000000000000000000000000000000000000000000000081526004016111cb90612c85565b60405180910390fd5b6000803373ffffffffffffffffffffffffffffffffffffffff16846040516111fb90612a4c565b60006040518083038185875af1925050503d8060008114611238576040519150601f19603f3d011682016040523d82523d6000602084013e61123d565b606091505b509150915081611282576040517f08c379a000000000000000000000000000000000000000000000000000000000815260040161127990612b85565b60405180910390fd5b50505050565b606061129382611473565b6112d2576040517f08c379a00000000000000000000000000000000000000000000000000000000081526004016112c990612ce5565b60405180910390fd5b60006112dc611b04565b905060008151116112fc5760405180602001604052806000815250611327565b8061130684611b1b565b604051602001611317929190612a28565b6040516020818303038152906040525b915050919050565b6060600061133c836108a4565b90506000611348610bef565b9050808260405160200161135d929190612a28565b60405160208183030381529060405292505050919050565b6000600560008473ffffffffffffffffffffffffffffffffffffffff1673ffffffffffffffffffffffffffffffffffffffff16815260200190815260200160002060008373ffffffffffffffffffffffffffffffffffffffff1673ffffffffffffffffffffffffffffffffffffffff16815260200190815260200160002060009054906101000a900460ff16905092915050565b60007f01ffc9a7000000000000000000000000000000000000000000000000000000007bffffffffffffffffffffffffffffffffffffffffffffffffffffffff1916827bffffffffffffffffffffffffffffffffffffffffffffffffffffffff1916149050919050565b60008073ffffffffffffffffffffffffffffffffffffffff166002600084815260200190815260200160002060009054906101000a900473ffffffffffffffffffffffffffffffffffffffff1673ffffffffffffffffffffffffffffffffffffffff1614159050919050565b600033905090565b816004600083815260200190815260200160002060006101000a81548173ffffffffffffffffffffffffffffffffffffffff021916908373ffffffffffffffffffffffffffffffffffffffff160217905550808273ffffffffffffffffffffffffffffffffffffffff1661155a83610aa3565b73ffffffffffffffffffffffffffffffffffffffff167f8c5be1e5ebec7d5bd14f71427d1e84f3dd0314c0f7b2291e5b200ac8c7c3b92560405160405180910390a45050565b60006115ab82611473565b6115ea576040517f08c379a00000000000000000000000000000000000000000000000000000000081526004016115e190612be5565b60405180910390fd5b60006115f583610aa3565b90508073ffffffffffffffffffffffffffffffffffffffff168473ffffffffffffffffffffffffffffffffffffffff16148061166457508373ffffffffffffffffffffffffffffffffffffffff1661164c84610707565b73ffffffffffffffffffffffffffffffffffffffff16145b8061167557506116748185611375565b5b91505092915050565b8273ffffffffffffffffffffffffffffffffffffffff1661169e82610aa3565b73ffffffffffffffffffffffffffffffffffffffff16146116f4576040517f08c379a00000000000000000000000000000000000000000000000000000000081526004016116eb90612cc5565b60405180910390fd5b600073ffffffffffffffffffffffffffffffffffffffff168273ffffffffffffffffffffffffffffffffffffffff161415611764576040517f08c379a000000000000000000000000000000000000000000000000000000000815260040161175b90612ba5565b60405180910390fd5b61176f838383611cc8565b61177a6000826114e7565b6001600360008573ffffffffffffffffffffffffffffffffffffffff1673ffffffffffffffffffffffffffffffffffffffff16815260200190815260200160002060008282546117ca9190612ee6565b925050819055506001600360008473ffffffffffffffffffffffffffffffffffffffff1673ffffffffffffffffffffffffffffffffffffffff16815260200190815260200160002060008282546118219190612e5f565b92505081905550816002600083815260200190815260200160002060006101000a81548173ffffffffffffffffffffffffffffffffffffffff021916908373ffffffffffffffffffffffffffffffffffffffff160217905550808273ffffffffffffffffffffffffffffffffffffffff168473ffffffffffffffffffffffffffffffffffffffff167fddf252ad1be2c89b69c2b068fc378daa952ba7f163c4a11628f55a4df523b3ef60405160405180910390a4505050565b600073ffffffffffffffffffffffffffffffffffffffff168273ffffffffffffffffffffffffffffffffffffffff16141561194a576040517f08c379a000000000000000000000000000000000000000000000000000000000815260040161194190612c65565b60405180910390fd5b61195381611473565b15611993576040517f08c379a000000000000000000000000000000000000000000000000000000000815260040161198a90612b65565b60405180910390fd5b61199f60008383611cc8565b6001600360008473ffffffffffffffffffffffffffffffffffffffff1673ffffffffffffffffffffffffffffffffffffffff16815260200190815260200160002060008282546119ef9190612e5f565b92505081905550816002600083815260200190815260200160002060006101000a81548173ffffffffffffffffffffffffffffffffffffffff021916908373ffffffffffffffffffffffffffffffffffffffff160217905550808273ffffffffffffffffffffffffffffffffffffffff16600073ffffffffffffffffffffffffffffffffffffffff167fddf252ad1be2c89b69c2b068fc378daa952ba7f163c4a11628f55a4df523b3ef60405160405180910390a45050565b611ab384848461167e565b611abf84848484611ccd565b611afe576040517f08c379a0000000000000000000000000000000000000000000000000000000008152600401611af590612b25565b60405180910390fd5b50505050565b606060405180602001604052806000815250905090565b60606000821415611b63576040518060400160405280600181526020017f30000000000000000000000000000000000000000000000000000000000000008152509050611cc3565b600082905060005b60008214611b95578080611b7e90613002565b915050600a82611b8e9190612eb5565b9150611b6b565b60008167ffffffffffffffff811115611bd7577f4e487b7100000000000000000000000000000000000000000000000000000000600052604160045260246000fd5b6040519080825280601f01601f191660200182016040528015611c095781602001600182028036833780820191505090505b5090505b60008514611cbc57600182611c229190612ee6565b9150600a85611c31919061304b565b6030611c3d9190612e5f565b60f81b818381518110611c79577f4e487b7100000000000000000000000000000000000000000000000000000000600052603260045260246000fd5b60200101907effffffffffffffffffffffffffffffffffffffffffffffffffffffffffffff1916908160001a905350600a85611cb59190612eb5565b9450611c0d565b8093505050505b919050565b505050565b6000611cee8473ffffffffffffffffffffffffffffffffffffffff16611e64565b15611e57578373ffffffffffffffffffffffffffffffffffffffff1663150b7a02611d176114df565b8786866040518563ffffffff1660e01b8152600401611d399493929190612a7c565b602060405180830381600087803b158015611d5357600080fd5b505af1925050508015611d8457506040513d601f19601f82011682018060405250810190611d819190612223565b60015b611e07573d8060008114611db4576040519150601f19603f3d011682016040523d82523d6000602084013e611db9565b606091505b50600081511415611dff576040517f08c379a0000000000000000000000000000000000000000000000000000000008152600401611df690612b25565b60405180910390fd5b805181602001fd5b63150b7a0260e01b7bffffffffffffffffffffffffffffffffffffffffffffffffffffffff1916817bffffffffffffffffffffffffffffffffffffffffffffffffffffffff191614915050611e5c565b600190505b949350505050565b600080823b905060008111915050919050565b828054611e8390612fd0565b90600052602060002090601f016020900481019282611ea55760008555611eec565b82601f10611ebe57805160ff1916838001178555611eec565b82800160010185558215611eec579182015b82811115611eeb578251825591602001919060010190611ed0565b5b509050611ef99190611efd565b5090565b5b80821115611f16576000816000905550600101611efe565b5090565b6000611f2d611f2884612db1565b612d80565b905082815260208101848484011115611f4557600080fd5b611f50848285612f8e565b509392505050565b6000611f6b611f6684612de1565b612d80565b905082815260208101848484011115611f8357600080fd5b611f8e848285612f8e565b509392505050565b600081359050611fa581613149565b92915050565b600081359050611fba81613160565b92915050565b600081359050611fcf81613177565b92915050565b600081519050611fe481613177565b92915050565b600082601f830112611ffb57600080fd5b813561200b848260208601611f1a565b91505092915050565b600082601f83011261202557600080fd5b8135612035848260208601611f58565b91505092915050565b60008135905061204d8161318e565b92915050565b60006020828403121561206557600080fd5b600061207384828501611f96565b91505092915050565b6000806040838503121561208f57600080fd5b600061209d85828601611f96565b92505060206120ae85828601611f96565b9150509250929050565b6000806000606084860312156120cd57600080fd5b60006120db86828701611f96565b93505060206120ec86828701611f96565b92505060406120fd8682870161203e565b9150509250925092565b6000806000806080858703121561211d57600080fd5b600061212b87828801611f96565b945050602061213c87828801611f96565b935050604061214d8782880161203e565b925050606085013567ffffffffffffffff81111561216a57600080fd5b61217687828801611fea565b91505092959194509250565b6000806040838503121561219557600080fd5b60006121a385828601611f96565b92505060206121b485828601611fab565b9150509250929050565b600080604083850312156121d157600080fd5b60006121df85828601611f96565b92505060206121f08582860161203e565b9150509250929050565b60006020828403121561220c57600080fd5b600061221a84828501611fc0565b91505092915050565b60006020828403121561223557600080fd5b600061224384828501611fd5565b91505092915050565b60006020828403121561225e57600080fd5b600082013567ffffffffffffffff81111561227857600080fd5b61228484828501612014565b91505092915050565b60006020828403121561229f57600080fd5b60006122ad8482850161203e565b91505092915050565b6122bf81612f1a565b82525050565b6122ce81612f2c565b82525050565b60006122df82612e11565b6122e98185612e27565b93506122f9818560208601612f9d565b61230281613138565b840191505092915050565b600061231882612e1c565b6123228185612e43565b9350612332818560208601612f9d565b61233b81613138565b840191505092915050565b600061235182612e1c565b61235b8185612e54565b935061236b818560208601612f9d565b80840191505092915050565b6000612384602183612e43565b91507f4f6e6c79206f776e65722063616e2063616c6c20746869732066756e6374696f60008301527f6e000000000000000000000000000000000000000000000000000000000000006020830152604082019050919050565b60006123ea603283612e43565b91507f4552433732313a207472616e7366657220746f206e6f6e20455243373231526560008301527f63656976657220696d706c656d656e74657200000000000000000000000000006020830152604082019050919050565b6000612450601383612e43565b91507f49742773206e6f7420656e6f75676820455448000000000000000000000000006000830152602082019050919050565b6000612490601c83612e43565b91507f4552433732313a20746f6b656e20616c7265616479206d696e746564000000006000830152602082019050919050565b60006124d0601483612e43565b91507f4661696c656420746f2073656e642045746865720000000000000000000000006000830152602082019050919050565b6000612510602483612e43565b91507f4552433732313a207472616e7366657220746f20746865207a65726f2061646460008301527f72657373000000000000000000000000000000000000000000000000000000006020830152604082019050919050565b6000612576601983612e43565b91507f4552433732313a20617070726f766520746f2063616c6c6572000000000000006000830152602082019050919050565b60006125b6602c83612e43565b91507f4552433732313a206f70657261746f7220717565727920666f72206e6f6e657860008301527f697374656e7420746f6b656e00000000000000000000000000000000000000006020830152604082019050919050565b600061261c603883612e43565b91507f4552433732313a20617070726f76652063616c6c6572206973206e6f74206f7760008301527f6e6572206e6f7220617070726f76656420666f7220616c6c00000000000000006020830152604082019050919050565b6000612682602a83612e43565b91507f4552433732313a2062616c616e636520717565727920666f7220746865207a6560008301527f726f2061646472657373000000000000000000000000000000000000000000006020830152604082019050919050565b60006126e8602983612e43565b91507f4552433732313a206f776e657220717565727920666f72206e6f6e657869737460008301527f656e7420746f6b656e00000000000000000000000000000000000000000000006020830152604082019050919050565b600061274e602083612e43565b91507f4552433732313a206d696e7420746f20746865207a65726f20616464726573736000830152602082019050919050565b600061278e601983612e43565b91507f436f6e7472616374206e6f7420656e6f75676820746f6b656e000000000000006000830152602082019050919050565b60006127ce602c83612e43565b91507f4552433732313a20617070726f76656420717565727920666f72206e6f6e657860008301527f697374656e7420746f6b656e00000000000000000000000000000000000000006020830152604082019050919050565b6000612834602983612e43565b91507f4552433732313a207472616e73666572206f6620746f6b656e2074686174206960008301527f73206e6f74206f776e00000000000000000000000000000000000000000000006020830152604082019050919050565b600061289a602f83612e43565b91507f4552433732314d657461646174613a2055524920717565727920666f72206e6f60008301527f6e6578697374656e7420746f6b656e00000000000000000000000000000000006020830152604082019050919050565b6000612900602183612e43565b91507f4552433732313a20617070726f76616c20746f2063757272656e74206f776e6560008301527f72000000000000000000000000000000000000000000000000000000000000006020830152604082019050919050565b6000612966600d83612e43565b91507f496e76616c696420546f6b656e000000000000000000000000000000000000006000830152602082019050919050565b60006129a6600083612e38565b9150600082019050919050565b60006129c0603183612e43565b91507f4552433732313a207472616e736665722063616c6c6572206973206e6f74206f60008301527f776e6572206e6f7220617070726f7665640000000000000000000000000000006020830152604082019050919050565b612a2281612f84565b82525050565b6000612a348285612346565b9150612a408284612346565b91508190509392505050565b6000612a5782612999565b9150819050919050565b6000602082019050612a7660008301846122b6565b92915050565b6000608082019050612a9160008301876122b6565b612a9e60208301866122b6565b612aab6040830185612a19565b8181036060830152612abd81846122d4565b905095945050505050565b6000602082019050612add60008301846122c5565b92915050565b60006020820190508181036000830152612afd818461230d565b905092915050565b60006020820190508181036000830152612b1e81612377565b9050919050565b60006020820190508181036000830152612b3e816123dd565b9050919050565b60006020820190508181036000830152612b5e81612443565b9050919050565b60006020820190508181036000830152612b7e81612483565b9050919050565b60006020820190508181036000830152612b9e816124c3565b9050919050565b60006020820190508181036000830152612bbe81612503565b9050919050565b60006020820190508181036000830152612bde81612569565b9050919050565b60006020820190508181036000830152612bfe816125a9565b9050919050565b60006020820190508181036000830152612c1e8161260f565b9050919050565b60006020820190508181036000830152612c3e81612675565b9050919050565b60006020820190508181036000830152612c5e816126db565b9050919050565b60006020820190508181036000830152612c7e81612741565b9050919050565b60006020820190508181036000830152612c9e81612781565b9050919050565b60006020820190508181036000830152612cbe816127c1565b9050919050565b60006020820190508181036000830152612cde81612827565b9050919050565b60006020820190508181036000830152612cfe8161288d565b9050919050565b60006020820190508181036000830152612d1e816128f3565b9050919050565b60006020820190508181036000830152612d3e81612959565b9050919050565b60006020820190508181036000830152612d5e816129b3565b9050919050565b6000602082019050612d7a6000830184612a19565b92915050565b6000604051905081810181811067ffffffffffffffff82111715612da757612da6613109565b5b8060405250919050565b600067ffffffffffffffff821115612dcc57612dcb613109565b5b601f19601f8301169050602081019050919050565b600067ffffffffffffffff821115612dfc57612dfb613109565b5b601f19601f8301169050602081019050919050565b600081519050919050565b600081519050919050565b600082825260208201905092915050565b600081905092915050565b600082825260208201905092915050565b600081905092915050565b6000612e6a82612f84565b9150612e7583612f84565b9250827fffffffffffffffffffffffffffffffffffffffffffffffffffffffffffffffff03821115612eaa57612ea961307c565b5b828201905092915050565b6000612ec082612f84565b9150612ecb83612f84565b925082612edb57612eda6130ab565b5b828204905092915050565b6000612ef182612f84565b9150612efc83612f84565b925082821015612f0f57612f0e61307c565b5b828203905092915050565b6000612f2582612f64565b9050919050565b60008115159050919050565b60007fffffffff0000000000000000000000000000000000000000000000000000000082169050919050565b600073ffffffffffffffffffffffffffffffffffffffff82169050919050565b6000819050919050565b82818337600083830152505050565b60005b83811015612fbb578082015181840152602081019050612fa0565b83811115612fca576000848401525b50505050565b60006002820490506001821680612fe857607f821691505b60208210811415612ffc57612ffb6130da565b5b50919050565b600061300d82612f84565b91507fffffffffffffffffffffffffffffffffffffffffffffffffffffffffffffffff8214156130405761303f61307c565b5b600182019050919050565b600061305682612f84565b915061306183612f84565b925082613071576130706130ab565b5b828206905092915050565b7f4e487b7100000000000000000000000000000000000000000000000000000000600052601160045260246000fd5b7f4e487b7100000000000000000000000000000000000000000000000000000000600052601260045260246000fd5b7f4e487b7100000000000000000000000000000000000000000000000000000000600052602260045260246000fd5b7f4e487b7100000000000000000000000000000000000000000000000000000000600052604160045260246000fd5b6000601f19601f8301169050919050565b61315281612f1a565b811461315d57600080fd5b50565b61316981612f2c565b811461317457600080fd5b50565b61318081612f38565b811461318b57600080fd5b50565b61319781612f84565b81146131a257600080fd5b5056fea26469706673582212206de6b289c19e0fe2144972ccccb5373427d42bd2360e228b3cff36df61f12dac64736f6c63430008000033",
  "linkReferences": {},
  "deployedLinkReferences": {}
}