{
  "_format": "hh-sol-artifact-1",
  "contractName": "Auctions",
  "sourceName": "contracts/Auctions.sol",
  "abi": [
    {
      "inputs": [
        {
          "internalType": "address",
          "name": "_artsAddress",
          "type": "address"
        }
      ],
      "stateMutability": "nonpayable",
      "type": "constructor"
    },
    {
      "anonymous": false,
      "inputs": [
        {
          "indexed": false,
          "internalType": "address",
          "name": "",
          "type": "address"
        },
        {
          "indexed": false,
          "internalType": "uint256",
          "name": "",
          "type": "uint256"
        },
        {
          "indexed": false,
          "internalType": "uint256",
          "name": "",
          "type": "uint256"
        }
      ],
      "name": "Bid",
      "type": "event"
    },
    {
      "anonymous": false,
      "inputs": [
        {
          "indexed": false,
          "internalType": "uint256",
          "name": "",
          "type": "uint256"
        }
      ],
      "name": "CompleteAuction",
      "type": "event"
    },
    {
      "anonymous": false,
      "inputs": [
        {
          "indexed": false,
          "internalType": "address",
          "name": "",
          "type": "address"
        },
        {
          "indexed": false,
          "internalType": "uint256",
          "name": "",
          "type": "uint256"
        },
        {
          "indexed": false,
          "internalType": "uint256",
          "name": "",
          "type": "uint256"
        },
        {
          "indexed": false,
          "internalType": "uint256",
          "name": "",
          "type": "uint256"
        },
        {
          "indexed": false,
          "internalType": "uint256",
          "name": "",
          "type": "uint256"
        },
        {
          "indexed": false,
          "internalType": "uint256",
          "name": "",
          "type": "uint256"
        },
        {
          "indexed": false,
          "internalType": "uint256",
          "name": "",
          "type": "uint256"
        }
      ],
      "name": "CreateAuction",
      "type": "event"
    },
    {
      "anonymous": false,
      "inputs": [
        {
          "indexed": false,
          "internalType": "address",
          "name": "",
          "type": "address"
        },
        {
          "indexed": false,
          "internalType": "uint256",
          "name": "",
          "type": "uint256"
        }
      ],
      "name": "WithDraw",
      "type": "event"
    },
    {
      "inputs": [
        {
          "internalType": "address",
          "name": "newOwner",
          "type": "address"
        }
      ],
      "name": "changeOwner",
      "outputs": [],
      "stateMutability": "nonpayable",
      "type": "function"
    },
    {
      "inputs": [
        {
          "internalType": "uint256",
          "name": "auctionId",
          "type": "uint256"
        }
      ],
      "name": "completeAuction",
      "outputs": [],
      "stateMutability": "nonpayable",
      "type": "function"
    },
    {
      "inputs": [
        {
          "internalType": "uint256",
          "name": "tokenId",
          "type": "uint256"
        },
        {
          "internalType": "uint256",
          "name": "minBid",
          "type": "uint256"
        },
        {
          "internalType": "uint256",
          "name": "bidIncrement",
          "type": "uint256"
        },
        {
          "internalType": "uint256",
          "name": "period",
          "type": "uint256"
        }
      ],
      "name": "createAuction",
      "outputs": [],
      "stateMutability": "payable",
      "type": "function"
    },
    {
      "inputs": [],
      "name": "getAuctionFee",
      "outputs": [
        {
          "internalType": "uint256",
          "name": "",
          "type": "uint256"
        }
      ],
      "stateMutability": "view",
      "type": "function"
    },
    {
      "inputs": [
        {
          "internalType": "uint256",
          "name": "auctionId",
          "type": "uint256"
        }
      ],
      "name": "getBidingAmount",
      "outputs": [
        {
          "internalType": "uint256",
          "name": "",
          "type": "uint256"
        }
      ],
      "stateMutability": "view",
      "type": "function"
    },
    {
      "inputs": [
        {
          "internalType": "uint256",
          "name": "auctionId",
          "type": "uint256"
        }
      ],
      "name": "getHighestBid",
      "outputs": [
        {
          "internalType": "address",
          "name": "",
          "type": "address"
        },
        {
          "internalType": "uint256",
          "name": "",
          "type": "uint256"
        }
      ],
      "stateMutability": "view",
      "type": "function"
    },
    {
      "inputs": [],
      "name": "getTotalFee",
      "outputs": [
        {
          "internalType": "uint256",
          "name": "",
          "type": "uint256"
        }
      ],
      "stateMutability": "view",
      "type": "function"
    },
    {
      "inputs": [
        {
          "internalType": "uint256",
          "name": "auctionId",
          "type": "uint256"
        }
      ],
      "name": "placeBid",
      "outputs": [],
      "stateMutability": "payable",
      "type": "function"
    },
    {
      "inputs": [
        {
          "internalType": "uint256",
          "name": "fee",
          "type": "uint256"
        }
      ],
      "name": "setAuctionFee",
      "outputs": [],
      "stateMutability": "nonpayable",
      "type": "function"
    },
    {
      "inputs": [
        {
          "internalType": "uint256",
          "name": "auctionId",
          "type": "uint256"
        }
      ],
      "name": "withdraw",
      "outputs": [],
      "stateMutability": "nonpayable",
      "type": "function"
    },
    {
      "inputs": [
        {
          "internalType": "uint256",
          "name": "amount",
          "type": "uint256"
        }
      ],
      "name": "withdrawFee",
      "outputs": [],
      "stateMutability": "nonpayable",
      "type": "function"
    }
  ],
  "bytecode": "0x60806040523480156200001157600080fd5b5060405162002ae338038062002ae38339818101604052810190620000379190620000f4565b806000806101000a81548173ffffffffffffffffffffffffffffffffffffffff021916908373ffffffffffffffffffffffffffffffffffffffff160217905550600060018190555066038d7ea4c6800060038190555033600460006101000a81548173ffffffffffffffffffffffffffffffffffffffff021916908373ffffffffffffffffffffffffffffffffffffffff160217905550600a600581905550506200016e565b600081519050620000ee8162000154565b92915050565b6000602082840312156200010757600080fd5b60006200011784828501620000dd565b91505092915050565b60006200012d8262000134565b9050919050565b600073ffffffffffffffffffffffffffffffffffffffff82169050919050565b6200015f8162000120565b81146200016b57600080fd5b50565b612965806200017e6000396000f3fe60806040526004361061009c5760003560e01c80637ae316d0116100645780637ae316d0146101775780638f288644146101a25780639979ef45146101e0578063a6f9dae1146101fc578063be35761614610225578063f59e754c1461024e5761009c565b80631031ca44146100a157806321b62886146100cc5780632e1a7d4d146100f5578063431f21da1461011e5780636d82ef3b1461013a575b600080fd5b3480156100ad57600080fd5b506100b6610277565b6040516100c39190612762565b60405180910390f35b3480156100d857600080fd5b506100f360048036038101906100ee9190611ff7565b610281565b005b34801561010157600080fd5b5061011c60048036038101906101179190611ff7565b6109f0565b005b61013860048036038101906101339190612020565b6110c4565b005b34801561014657600080fd5b50610161600480360381019061015c9190611ff7565b6113be565b60405161016e9190612762565b60405180910390f35b34801561018357600080fd5b5061018c611420565b6040516101999190612762565b60405180910390f35b3480156101ae57600080fd5b506101c960048036038101906101c49190611ff7565b6114b8565b6040516101d79291906124d3565b60405180910390f35b6101fa60048036038101906101f59190611ff7565b61154c565b005b34801561020857600080fd5b50610223600480360381019061021e9190611fce565b611b5b565b005b34801561023157600080fd5b5061024c60048036038101906102479190611ff7565b611c2f565b005b34801561025a57600080fd5b5061027560048036038101906102709190611ff7565b611dc2565b005b6000600354905090565b8060015481106102c6576040517f08c379a00000000000000000000000000000000000000000000000000000000081526004016102bd906126c2565b60405180910390fd5b816000600660008381526020019081526020016000206040518060c00160405290816000820160009054906101000a900473ffffffffffffffffffffffffffffffffffffffff1673ffffffffffffffffffffffffffffffffffffffff1673ffffffffffffffffffffffffffffffffffffffff16815260200160018201548152602001600282015481526020016003820154815260200160048201548152602001600582015481525050905060008160800151905060008260a0015190504282118061039b57504281836103999190612799565b105b6103da576040517f08c379a00000000000000000000000000000000000000000000000000000000081526004016103d1906126e2565b60405180910390fd5b6008600087815260200190815260200160002060009054906101000a900460ff1661043a576040517f08c379a000000000000000000000000000000000000000000000000000000000815260040161043190612702565b60405180910390fd5b6000600660008881526020019081526020016000206040518060c00160405290816000820160009054906101000a900473ffffffffffffffffffffffffffffffffffffffff1673ffffffffffffffffffffffffffffffffffffffff1673ffffffffffffffffffffffffffffffffffffffff168152602001600182015481526020016002820154815260200160038201548152602001600482015481526020016005820154815250509050600060076000898152602001908152602001600020905060008160040160009054906101000a900473ffffffffffffffffffffffffffffffffffffffff1690506000826002018054905090506000606060005b8381101561083457600073ffffffffffffffffffffffffffffffffffffffff16866002018281548110610593577f4e487b7100000000000000000000000000000000000000000000000000000000600052603260045260246000fd5b9060005260206000200160009054906101000a900473ffffffffffffffffffffffffffffffffffffffff1673ffffffffffffffffffffffffffffffffffffffff161415801561067457508473ffffffffffffffffffffffffffffffffffffffff16866002018281548110610630577f4e487b7100000000000000000000000000000000000000000000000000000000600052603260045260246000fd5b9060005260206000200160009054906101000a900473ffffffffffffffffffffffffffffffffffffffff1673ffffffffffffffffffffffffffffffffffffffff1614155b156108215760008660020182815481106106b7577f4e487b7100000000000000000000000000000000000000000000000000000000600052603260045260246000fd5b9060005260206000200160009054906101000a900473ffffffffffffffffffffffffffffffffffffffff16905060008760010160008373ffffffffffffffffffffffffffffffffffffffff1673ffffffffffffffffffffffffffffffffffffffff16815260200190815260200160002054111561081f578073ffffffffffffffffffffffffffffffffffffffff168760010160008373ffffffffffffffffffffffffffffffffffffffff1673ffffffffffffffffffffffffffffffffffffffff1681526020019081526020016000205460405161079390612487565b60006040518083038185875af1925050503d80600081146107d0576040519150601f19603f3d011682016040523d82523d6000602084013e6107d5565b606091505b5080945081955050508361081e576040517f08c379a000000000000000000000000000000000000000000000000000000000815260040161081590612602565b60405180910390fd5b5b505b808061082c90612889565b915050610537565b5060008054906101000a900473ffffffffffffffffffffffffffffffffffffffff1673ffffffffffffffffffffffffffffffffffffffff166323b872dd308689604001516040518463ffffffff1660e01b81526004016108969392919061249c565b600060405180830381600087803b1580156108b057600080fd5b505af11580156108c4573d6000803e3d6000fd5b50505050856000015173ffffffffffffffffffffffffffffffffffffffff1685600001546040516108f490612487565b60006040518083038185875af1925050503d8060008114610931576040519150601f19603f3d011682016040523d82523d6000602084013e610936565b606091505b5080925081935050508161097f576040517f08c379a000000000000000000000000000000000000000000000000000000000815260040161097690612602565b60405180910390fd5b6000600860008e815260200190815260200160002060006101000a81548160ff0219169083151502179055507fb85b22d8c30fae2515d23337fb4d566a42e54629a86d07bc1920badc89b392488c6040516109da9190612762565b60405180910390a1505050505050505050505050565b806001548110610a35576040517f08c379a0000000000000000000000000000000000000000000000000000000008152600401610a2c906126c2565b60405180910390fd5b600060076000848152602001908152602001600020905060008160010160003373ffffffffffffffffffffffffffffffffffffffff1673ffffffffffffffffffffffffffffffffffffffff16815260200190815260200160002054905060008111610ad5576040517f08c379a0000000000000000000000000000000000000000000000000000000008152600401610acc90612622565b60405180910390fd5b6001826003015411610b1c576040517f08c379a0000000000000000000000000000000000000000000000000000000008152600401610b1390612662565b60405180910390fd5b6008600085815260200190815260200160002060009054906101000a900460ff16610b7c576040517f08c379a0000000000000000000000000000000000000000000000000000000008152600401610b7390612642565b60405180910390fd5b60008260010160003373ffffffffffffffffffffffffffffffffffffffff1673ffffffffffffffffffffffffffffffffffffffff168152602001908152602001600020819055506000826002018054905090508260040160009054906101000a900473ffffffffffffffffffffffffffffffffffffffff1673ffffffffffffffffffffffffffffffffffffffff163373ffffffffffffffffffffffffffffffffffffffff161415610e7657610c3085611e5c565b600083600201600081548110610c6f577f4e487b7100000000000000000000000000000000000000000000000000000000600052603260045260246000fd5b9060005260206000200160009054906101000a900473ffffffffffffffffffffffffffffffffffffffff16905060008460010160008373ffffffffffffffffffffffffffffffffffffffff1673ffffffffffffffffffffffffffffffffffffffff1681526020019081526020016000205490506000600190505b83811015610e26576000866001016000886002018481548110610d35577f4e487b7100000000000000000000000000000000000000000000000000000000600052603260045260246000fd5b9060005260206000200160009054906101000a900473ffffffffffffffffffffffffffffffffffffffff1673ffffffffffffffffffffffffffffffffffffffff1673ffffffffffffffffffffffffffffffffffffffff16815260200190815260200160002054905080831015610e1257809250866002018281548110610de4577f4e487b7100000000000000000000000000000000000000000000000000000000600052603260045260246000fd5b9060005260206000200160009054906101000a900473ffffffffffffffffffffffffffffffffffffffff1693505b508080610e1e90612889565b915050610ce9565b50808560000181905550818560040160006101000a81548173ffffffffffffffffffffffffffffffffffffffff021916908373ffffffffffffffffffffffffffffffffffffffff16021790555050505b6000803373ffffffffffffffffffffffffffffffffffffffff1684604051610e9d90612487565b60006040518083038185875af1925050503d8060008114610eda576040519150601f19603f3d011682016040523d82523d6000602084013e610edf565b606091505b509150915081610f24576040517f08c379a0000000000000000000000000000000000000000000000000000000008152600401610f1b90612602565b60405180910390fd5b60005b83811015611081573373ffffffffffffffffffffffffffffffffffffffff16866002018281548110610f82577f4e487b7100000000000000000000000000000000000000000000000000000000600052603260045260246000fd5b9060005260206000200160009054906101000a900473ffffffffffffffffffffffffffffffffffffffff1673ffffffffffffffffffffffffffffffffffffffff16141561106e576000866002018281548110611007577f4e487b7100000000000000000000000000000000000000000000000000000000600052603260045260246000fd5b9060005260206000200160006101000a81548173ffffffffffffffffffffffffffffffffffffffff021916908373ffffffffffffffffffffffffffffffffffffffff1602179055508560030160008154809291906110649061285f565b9190505550611081565b808061107990612889565b915050610f27565b507f14b43ca4c63c5423006ad978eab8a14386476b52f1d4728070ea20a36f13e83b33886040516110b39291906124d3565b60405180910390a150505050505050565b60008311611107576040517f08c379a00000000000000000000000000000000000000000000000000000000081526004016110fe90612722565b60405180910390fd5b60035434101561114c576040517f08c379a0000000000000000000000000000000000000000000000000000000008152600401611143906125e2565b60405180910390fd5b60008054906101000a900473ffffffffffffffffffffffffffffffffffffffff1673ffffffffffffffffffffffffffffffffffffffff166323b872dd3330876040518463ffffffff1660e01b81526004016111a99392919061249c565b600060405180830381600087803b1580156111c357600080fd5b505af11580156111d7573d6000803e3d6000fd5b505050506040518060c001604052803373ffffffffffffffffffffffffffffffffffffffff1681526020018481526020018581526020018381526020014281526020018281525060066000600154815260200190815260200160002060008201518160000160006101000a81548173ffffffffffffffffffffffffffffffffffffffff021916908373ffffffffffffffffffffffffffffffffffffffff1602179055506020820151816001015560408201518160020155606082015181600301556080820151816004015560a082015181600501559050503360076000600154815260200190815260200160002060040160006101000a81548173ffffffffffffffffffffffffffffffffffffffff021916908373ffffffffffffffffffffffffffffffffffffffff16021790555061131b60018054611f7890919063ffffffff16565b60018190555060016008600061133c60018054611f8e90919063ffffffff16565b815260200190815260200160002060006101000a81548160ff0219169083151502179055507fe6c27cd9c8f49e7f88578c1b5fc61732ef7ef1e188030a9171c13f783f8529d23361139860018054611f8e90919063ffffffff16565b86868642876040516113b09796959493929190612533565b60405180910390a150505050565b6000806007600084815260200190815260200160002090508060010160003373ffffffffffffffffffffffffffffffffffffffff1673ffffffffffffffffffffffffffffffffffffffff16815260200190815260200160002054915050919050565b6000600460009054906101000a900473ffffffffffffffffffffffffffffffffffffffff1673ffffffffffffffffffffffffffffffffffffffff163373ffffffffffffffffffffffffffffffffffffffff16146114b2576040517f08c379a00000000000000000000000000000000000000000000000000000000081526004016114a9906125a2565b60405180910390fd5b47905090565b600080826001548110611500576040517f08c379a00000000000000000000000000000000000000000000000000000000081526004016114f7906126c2565b60405180910390fd5b60006007600086815260200190815260200160002090508060040160009054906101000a900473ffffffffffffffffffffffffffffffffffffffff168160000154935093505050915091565b806001548110611591576040517f08c379a0000000000000000000000000000000000000000000000000000000008152600401611588906126c2565b60405180910390fd5b816000600660008381526020019081526020016000206040518060c00160405290816000820160009054906101000a900473ffffffffffffffffffffffffffffffffffffffff1673ffffffffffffffffffffffffffffffffffffffff1673ffffffffffffffffffffffffffffffffffffffff16815260200160018201548152602001600282015481526020016003820154815260200160048201548152602001600582015481525050905060008160800151905060008260a001519050428210801561166757504281836116659190612799565b115b6116a6576040517f08c379a000000000000000000000000000000000000000000000000000000000815260040161169d90612682565b60405180910390fd5b856000600660008381526020019081526020016000206040518060c00160405290816000820160009054906101000a900473ffffffffffffffffffffffffffffffffffffffff1673ffffffffffffffffffffffffffffffffffffffff1673ffffffffffffffffffffffffffffffffffffffff1681526020016001820154815260200160028201548152602001600382015481526020016004820154815260200160058201548152505090506000816000015190508073ffffffffffffffffffffffffffffffffffffffff163373ffffffffffffffffffffffffffffffffffffffff1614156117c9576040517f08c379a00000000000000000000000000000000000000000000000000000000081526004016117c090612742565b60405180910390fd5b6000600660008b81526020019081526020016000206040518060c00160405290816000820160009054906101000a900473ffffffffffffffffffffffffffffffffffffffff1673ffffffffffffffffffffffffffffffffffffffff1673ffffffffffffffffffffffffffffffffffffffff1681526020016001820154815260200160028201548152602001600382015481526020016004820154815260200160058201548152505090506000600760008c8152602001908152602001600020905060003490508260200151811180156118bc57506118b883606001518360000154611f7890919063ffffffff16565b8110155b6118fb576040517f08c379a00000000000000000000000000000000000000000000000000000000081526004016118f2906125c2565b60405180910390fd5b60008260010160003373ffffffffffffffffffffffffffffffffffffffff1673ffffffffffffffffffffffffffffffffffffffff168152602001908152602001600020549050818360010160003373ffffffffffffffffffffffffffffffffffffffff1673ffffffffffffffffffffffffffffffffffffffff168152602001908152602001600020819055506000811415611a145782600201339080600181540180825580915050600190039060005260206000200160009091909190916101000a81548173ffffffffffffffffffffffffffffffffffffffff021916908373ffffffffffffffffffffffffffffffffffffffff160217905550826003016000815480929190611a0a90612889565b9190505550611ac5565b6000803373ffffffffffffffffffffffffffffffffffffffff1683604051611a3b90612487565b60006040518083038185875af1925050503d8060008114611a78576040519150601f19603f3d011682016040523d82523d6000602084013e611a7d565b606091505b509150915081611ac2576040517f08c379a0000000000000000000000000000000000000000000000000000000008152600401611ab990612602565b60405180910390fd5b50505b818360000181905550338360040160006101000a81548173ffffffffffffffffffffffffffffffffffffffff021916908373ffffffffffffffffffffffffffffffffffffffff1602179055507f19421268847f42dd61705778018ddfc43bcdce8517e7a630acb12f122c709481338e84604051611b44939291906124fc565b60405180910390a150505050505050505050505050565b600460009054906101000a900473ffffffffffffffffffffffffffffffffffffffff1673ffffffffffffffffffffffffffffffffffffffff163373ffffffffffffffffffffffffffffffffffffffff1614611beb576040517f08c379a0000000000000000000000000000000000000000000000000000000008152600401611be2906125a2565b60405180910390fd5b80600460006101000a81548173ffffffffffffffffffffffffffffffffffffffff021916908373ffffffffffffffffffffffffffffffffffffffff16021790555050565b600460009054906101000a900473ffffffffffffffffffffffffffffffffffffffff1673ffffffffffffffffffffffffffffffffffffffff163373ffffffffffffffffffffffffffffffffffffffff1614611cbf576040517f08c379a0000000000000000000000000000000000000000000000000000000008152600401611cb6906125a2565b60405180910390fd5b6000611cc9611420565b905080821115611d0e576040517f08c379a0000000000000000000000000000000000000000000000000000000008152600401611d05906126a2565b60405180910390fd5b6000803373ffffffffffffffffffffffffffffffffffffffff1684604051611d3590612487565b60006040518083038185875af1925050503d8060008114611d72576040519150601f19603f3d011682016040523d82523d6000602084013e611d77565b606091505b509150915081611dbc576040517f08c379a0000000000000000000000000000000000000000000000000000000008152600401611db390612602565b60405180910390fd5b50505050565b600460009054906101000a900473ffffffffffffffffffffffffffffffffffffffff1673ffffffffffffffffffffffffffffffffffffffff163373ffffffffffffffffffffffffffffffffffffffff1614611e52576040517f08c379a0000000000000000000000000000000000000000000000000000000008152600401611e49906125a2565b60405180910390fd5b8060038190555050565b806000600660008381526020019081526020016000206040518060c00160405290816000820160009054906101000a900473ffffffffffffffffffffffffffffffffffffffff1673ffffffffffffffffffffffffffffffffffffffff1673ffffffffffffffffffffffffffffffffffffffff16815260200160018201548152602001600282015481526020016003820154815260200160048201548152602001600582015481525050905060008160800151905060008260a0015190504282108015611f325750428183611f309190612799565b115b611f71576040517f08c379a0000000000000000000000000000000000000000000000000000000008152600401611f6890612682565b60405180910390fd5b5050505050565b60008183611f869190612799565b905092915050565b60008183611f9c91906127ef565b905092915050565b600081359050611fb381612901565b92915050565b600081359050611fc881612918565b92915050565b600060208284031215611fe057600080fd5b6000611fee84828501611fa4565b91505092915050565b60006020828403121561200957600080fd5b600061201784828501611fb9565b91505092915050565b6000806000806080858703121561203657600080fd5b600061204487828801611fb9565b945050602061205587828801611fb9565b935050604061206687828801611fb9565b925050606061207787828801611fb9565b91505092959194509250565b61208c81612823565b82525050565b600061209f602183612788565b91507f4f6e6c79206f776e65722063616e2063616c6c20746869732066756e6374696f60008301527f6e000000000000000000000000000000000000000000000000000000000000006020830152604082019050919050565b6000612105601883612788565b91507f5468652062696464696e67206973206e6f742076616c696400000000000000006000830152602082019050919050565b6000612145601383612788565b91507f49742773206e6f7420656e6f75676820455448000000000000000000000000006000830152602082019050919050565b6000612185601483612788565b91507f4661696c656420746f2073656e642045746865720000000000000000000000006000830152602082019050919050565b60006121c5602383612788565b91507f5769746864726177696e6720776974682061646472657373206469646e27742060008301527f62696400000000000000000000000000000000000000000000000000000000006020830152604082019050919050565b600061222b601983612788565b91507f546869732041756374696f6e20697320636f6d706c65746564000000000000006000830152602082019050919050565b600061226b601a83612788565b91507f4c617374206269646465722063616e27742077697468647261770000000000006000830152602082019050919050565b60006122ab600883612788565b91507f4f75742074696d650000000000000000000000000000000000000000000000006000830152602082019050919050565b60006122eb601983612788565b91507f436f6e7472616374206e6f7420656e6f75676820746f6b656e000000000000006000830152602082019050919050565b600061232b601b83612788565b91507f49742773206e6f7420612076616c69642061756374696f6e20496400000000006000830152602082019050919050565b600061236b600d83612788565b91507f49732041756374696f6e696e67000000000000000000000000000000000000006000830152602082019050919050565b60006123ab601a83612788565b91507f546869732041756374696f6e2077617320636f6d706c657465640000000000006000830152602082019050919050565b60006123eb601983612788565b91507f50726963652063616e206e6f74206c657373207468616e2030000000000000006000830152602082019050919050565b600061242b60008361277d565b9150600082019050919050565b6000612445601083612788565b91507f53656c6c65722063616e277420626964000000000000000000000000000000006000830152602082019050919050565b61248181612855565b82525050565b60006124928261241e565b9150819050919050565b60006060820190506124b16000830186612083565b6124be6020830185612083565b6124cb6040830184612478565b949350505050565b60006040820190506124e86000830185612083565b6124f56020830184612478565b9392505050565b60006060820190506125116000830186612083565b61251e6020830185612478565b61252b6040830184612478565b949350505050565b600060e082019050612548600083018a612083565b6125556020830189612478565b6125626040830188612478565b61256f6060830187612478565b61257c6080830186612478565b61258960a0830185612478565b61259660c0830184612478565b98975050505050505050565b600060208201905081810360008301526125bb81612092565b9050919050565b600060208201905081810360008301526125db816120f8565b9050919050565b600060208201905081810360008301526125fb81612138565b9050919050565b6000602082019050818103600083015261261b81612178565b9050919050565b6000602082019050818103600083015261263b816121b8565b9050919050565b6000602082019050818103600083015261265b8161221e565b9050919050565b6000602082019050818103600083015261267b8161225e565b9050919050565b6000602082019050818103600083015261269b8161229e565b9050919050565b600060208201905081810360008301526126bb816122de565b9050919050565b600060208201905081810360008301526126db8161231e565b9050919050565b600060208201905081810360008301526126fb8161235e565b9050919050565b6000602082019050818103600083015261271b8161239e565b9050919050565b6000602082019050818103600083015261273b816123de565b9050919050565b6000602082019050818103600083015261275b81612438565b9050919050565b60006020820190506127776000830184612478565b92915050565b600081905092915050565b600082825260208201905092915050565b60006127a482612855565b91506127af83612855565b9250827fffffffffffffffffffffffffffffffffffffffffffffffffffffffffffffffff038211156127e4576127e36128d2565b5b828201905092915050565b60006127fa82612855565b915061280583612855565b925082821015612818576128176128d2565b5b828203905092915050565b600061282e82612835565b9050919050565b600073ffffffffffffffffffffffffffffffffffffffff82169050919050565b6000819050919050565b600061286a82612855565b9150600082141561287e5761287d6128d2565b5b600182039050919050565b600061289482612855565b91507fffffffffffffffffffffffffffffffffffffffffffffffffffffffffffffffff8214156128c7576128c66128d2565b5b600182019050919050565b7f4e487b7100000000000000000000000000000000000000000000000000000000600052601160045260246000fd5b61290a81612823565b811461291557600080fd5b50565b61292181612855565b811461292c57600080fd5b5056fea2646970667358221220f99c4e6776edacbd61d9a363c2e5a6f8ee0f824cf7aff0ee1897bd8e9e30561a64736f6c63430008000033",
  "linkReferences": {},
  "deployedLinkReferences": {}
}